{"contracts/FundMe.sol":{"FundMe":{"abi":[{"inputs":[{"internalType":"uint256","name":"_lockTime","type":"uint256"}],"stateMutability":"nonpayable","type":"constructor"},{"inputs":[],"name":"fund","outputs":[],"stateMutability":"payable","type":"function"},{"inputs":[{"internalType":"address","name":"","type":"address"}],"name":"fundersToAmount","outputs":[{"internalType":"uint256","name":"","type":"uint256"}],"stateMutability":"view","type":"function"},{"inputs":[],"name":"getChainlinkDataFeedLatestAnswer","outputs":[{"internalType":"int256","name":"","type":"int256"}],"stateMutability":"view","type":"function"},{"inputs":[],"name":"getFund","outputs":[],"stateMutability":"nonpayable","type":"function"},{"inputs":[],"name":"getFundSuccess","outputs":[{"internalType":"bool","name":"","type":"bool"}],"stateMutability":"view","type":"function"},{"inputs":[],"name":"owner","outputs":[{"internalType":"address","name":"","type":"address"}],"stateMutability":"view","type":"function"},{"inputs":[],"name":"refund","outputs":[],"stateMutability":"nonpayable","type":"function"},{"inputs":[{"internalType":"address","name":"funder","type":"address"},{"internalType":"uint256","name":"amountToUpdate","type":"uint256"}],"name":"setFunderToAmount","outputs":[],"stateMutability":"nonpayable","type":"function"},{"inputs":[{"internalType":"address","name":"newOwner","type":"address"}],"name":"transferOwnership","outputs":[],"stateMutability":"nonpayable","type":"function"}],"devdoc":{"kind":"dev","methods":{},"version":1},"evm":{"bytecode":{"linkReferences":{},"object":"60806040526000600560146101000a81548160ff02191690831515021790555034801561002b57600080fd5b506040516114a73803806114a7833981810160405281019061004d9190610132565b73694aa1769357215de4fac081bf1f309adc325306600160006101000a81548173ffffffffffffffffffffffffffffffffffffffff021916908373ffffffffffffffffffffffffffffffffffffffff16021790555033600260006101000a81548173ffffffffffffffffffffffffffffffffffffffff021916908373ffffffffffffffffffffffffffffffffffffffff16021790555042600381905550806004819055505061015f565b600080fd5b6000819050919050565b61010f816100fc565b811461011a57600080fd5b50565b60008151905061012c81610106565b92915050565b600060208284031215610148576101476100f7565b5b60006101568482850161011d565b91505092915050565b6113398061016e6000396000f3fe6080604052600436106100865760003560e01c8063b60d428811610059578063b60d428814610121578063bea4dfb51461012b578063d39cf00614610156578063da4658e01461017f578063f2fde38b146101aa57610086565b8063590e1ae31461008b5780638da5cb5b146100a25780638edd6eb6146100cd5780639f883a05146100e4575b600080fd5b34801561009757600080fd5b506100a06101d3565b005b3480156100ae57600080fd5b506100b761047e565b6040516100c49190610b0e565b60405180910390f35b3480156100d957600080fd5b506100e26104a4565b005b3480156100f057600080fd5b5061010b60048036038101906101069190610b5a565b61073c565b6040516101189190610ba0565b60405180910390f35b610129610754565b005b34801561013757600080fd5b5061014061083e565b60405161014d9190610bd4565b60405180910390f35b34801561016257600080fd5b5061017d60048036038101906101789190610c1b565b6108df565b005b34801561018b57600080fd5b506101946109b6565b6040516101a19190610c76565b60405180910390f35b3480156101b657600080fd5b506101d160048036038101906101cc9190610b5a565b6109c9565b005b6004546003546101e39190610cc0565b421015610225576040517f08c379a000000000000000000000000000000000000000000000000000000000815260040161021c90610d51565b60405180910390fd5b683635c9adc5dea0000061023847610a9d565b10610278576040517f08c379a000000000000000000000000000000000000000000000000000000000815260040161026f90610dbd565b60405180910390fd5b60008060003373ffffffffffffffffffffffffffffffffffffffff1673ffffffffffffffffffffffffffffffffffffffff16815260200190815260200160002054036102f9576040517f08c379a00000000000000000000000000000000000000000000000000000000081526004016102f090610e29565b60405180910390fd5b6004546003546103099190610cc0565b42101561034b576040517f08c379a000000000000000000000000000000000000000000000000000000000815260040161034290610d51565b60405180910390fd5b60003373ffffffffffffffffffffffffffffffffffffffff166000803373ffffffffffffffffffffffffffffffffffffffff1673ffffffffffffffffffffffffffffffffffffffff168152602001908152602001600020546040516103af90610e7a565b60006040518083038185875af1925050503d80600081146103ec576040519150601f19603f3d011682016040523d82523d6000602084013e6103f1565b606091505b50508091505080610437576040517f08c379a000000000000000000000000000000000000000000000000000000000815260040161042e90610edb565b60405180910390fd5b60008060003373ffffffffffffffffffffffffffffffffffffffff1673ffffffffffffffffffffffffffffffffffffffff1681526020019081526020016000208190555050565b600260009054906101000a900473ffffffffffffffffffffffffffffffffffffffff1681565b6004546003546104b49190610cc0565b4210156104f6576040517f08c379a00000000000000000000000000000000000000000000000000000000081526004016104ed90610d51565b60405180910390fd5b600260009054906101000a900473ffffffffffffffffffffffffffffffffffffffff1673ffffffffffffffffffffffffffffffffffffffff163373ffffffffffffffffffffffffffffffffffffffff1614610586576040517f08c379a000000000000000000000000000000000000000000000000000000000815260040161057d90610f6d565b60405180910390fd5b683635c9adc5dea0000061059947610a9d565b10156105da576040517f08c379a00000000000000000000000000000000000000000000000000000000081526004016105d190610fd9565b60405180910390fd5b6004546003546105ea9190610cc0565b42101561062c576040517f08c379a000000000000000000000000000000000000000000000000000000000815260040161062390610d51565b60405180910390fd5b60003373ffffffffffffffffffffffffffffffffffffffff164760405161065290610e7a565b60006040518083038185875af1925050503d806000811461068f576040519150601f19603f3d011682016040523d82523d6000602084013e610694565b606091505b505080915050806106da576040517f08c379a00000000000000000000000000000000000000000000000000000000081526004016106d190610edb565b60405180910390fd5b60008060003373ffffffffffffffffffffffffffffffffffffffff1673ffffffffffffffffffffffffffffffffffffffff168152602001908152602001600020819055506001600560146101000a81548160ff02191690831515021790555050565b60006020528060005260406000206000915090505481565b670de0b6b3a764000061076634610a9d565b10156107a7576040517f08c379a000000000000000000000000000000000000000000000000000000000815260040161079e90611045565b60405180910390fd5b6004546003546107b79190610cc0565b4211156107f9576040517f08c379a00000000000000000000000000000000000000000000000000000000081526004016107f0906110b1565b60405180910390fd5b346000803373ffffffffffffffffffffffffffffffffffffffff1673ffffffffffffffffffffffffffffffffffffffff16815260200190815260200160002081905550565b600080600160009054906101000a900473ffffffffffffffffffffffffffffffffffffffff1673ffffffffffffffffffffffffffffffffffffffff1663feaf968c6040518163ffffffff1660e01b815260040160a060405180830381865afa1580156108ae573d6000803e3d6000fd5b505050506040513d601f19601f820116820180604052508101906108d29190611154565b5050509150508091505090565b600560009054906101000a900473ffffffffffffffffffffffffffffffffffffffff1673ffffffffffffffffffffffffffffffffffffffff163373ffffffffffffffffffffffffffffffffffffffff161461096f576040517f08c379a000000000000000000000000000000000000000000000000000000000815260040161096690611241565b60405180910390fd5b806000808473ffffffffffffffffffffffffffffffffffffffff1673ffffffffffffffffffffffffffffffffffffffff168152602001908152602001600020819055505050565b600560149054906101000a900460ff1681565b600260009054906101000a900473ffffffffffffffffffffffffffffffffffffffff1673ffffffffffffffffffffffffffffffffffffffff163373ffffffffffffffffffffffffffffffffffffffff1614610a59576040517f08c379a0000000000000000000000000000000000000000000000000000000008152600401610a5090610f6d565b60405180910390fd5b80600260006101000a81548173ffffffffffffffffffffffffffffffffffffffff021916908373ffffffffffffffffffffffffffffffffffffffff16021790555050565b600080610aa861083e565b90506305f5e1008184610abb9190611261565b610ac591906112d2565b915050919050565b600073ffffffffffffffffffffffffffffffffffffffff82169050919050565b6000610af882610acd565b9050919050565b610b0881610aed565b82525050565b6000602082019050610b236000830184610aff565b92915050565b600080fd5b610b3781610aed565b8114610b4257600080fd5b50565b600081359050610b5481610b2e565b92915050565b600060208284031215610b7057610b6f610b29565b5b6000610b7e84828501610b45565b91505092915050565b6000819050919050565b610b9a81610b87565b82525050565b6000602082019050610bb56000830184610b91565b92915050565b6000819050919050565b610bce81610bbb565b82525050565b6000602082019050610be96000830184610bc5565b92915050565b610bf881610b87565b8114610c0357600080fd5b50565b600081359050610c1581610bef565b92915050565b60008060408385031215610c3257610c31610b29565b5b6000610c4085828601610b45565b9250506020610c5185828601610c06565b9150509250929050565b60008115159050919050565b610c7081610c5b565b82525050565b6000602082019050610c8b6000830184610c67565b92915050565b7f4e487b7100000000000000000000000000000000000000000000000000000000600052601160045260246000fd5b6000610ccb82610b87565b9150610cd683610b87565b9250828201905080821115610cee57610ced610c91565b5b92915050565b600082825260208201905092915050565b7f77696e646f77206973206e6f7420636c6f736564000000000000000000000000600082015250565b6000610d3b601483610cf4565b9150610d4682610d05565b602082019050919050565b60006020820190508181036000830152610d6a81610d2e565b9050919050565b7f5461726765742069732072656163686564000000000000000000000000000000600082015250565b6000610da7601183610cf4565b9150610db282610d71565b602082019050919050565b60006020820190508181036000830152610dd681610d9a565b9050919050565b7f7468657265206973206e6f2066756e6420666f7220796f750000000000000000600082015250565b6000610e13601883610cf4565b9150610e1e82610ddd565b602082019050919050565b60006020820190508181036000830152610e4281610e06565b9050919050565b600081905092915050565b50565b6000610e64600083610e49565b9150610e6f82610e54565b600082019050919050565b6000610e8582610e57565b9150819050919050565b7f7472616e73666572207478206661696c65640000000000000000000000000000600082015250565b6000610ec5601283610cf4565b9150610ed082610e8f565b602082019050919050565b60006020820190508181036000830152610ef481610eb8565b9050919050565b7f746869732066756e63696f6e742063616e206f6e6c792062652063616c6c656460008201527f206279206f776e65720000000000000000000000000000000000000000000000602082015250565b6000610f57602983610cf4565b9150610f6282610efb565b604082019050919050565b60006020820190508181036000830152610f8681610f4a565b9050919050565b7f546172676574206973206e6f7420726561636865640000000000000000000000600082015250565b6000610fc3601583610cf4565b9150610fce82610f8d565b602082019050919050565b60006020820190508181036000830152610ff281610fb6565b9050919050565b7f73656e64206d6f72652065746800000000000000000000000000000000000000600082015250565b600061102f600d83610cf4565b915061103a82610ff9565b602082019050919050565b6000602082019050818103600083015261105e81611022565b9050919050565b7f77696e646f7720697320636c6f73656400000000000000000000000000000000600082015250565b600061109b601083610cf4565b91506110a682611065565b602082019050919050565b600060208201905081810360008301526110ca8161108e565b9050919050565b600069ffffffffffffffffffff82169050919050565b6110f0816110d1565b81146110fb57600080fd5b50565b60008151905061110d816110e7565b92915050565b61111c81610bbb565b811461112757600080fd5b50565b60008151905061113981611113565b92915050565b60008151905061114e81610bef565b92915050565b600080600080600060a086880312156111705761116f610b29565b5b600061117e888289016110fe565b955050602061118f8882890161112a565b94505060406111a08882890161113f565b93505060606111b18882890161113f565b92505060806111c2888289016110fe565b9150509295509295909350565b7f796f7520646f206e6f742068617665207065726d697373696f6e20746f20636160008201527f6c6c20746869732066756e74696f6e0000000000000000000000000000000000602082015250565b600061122b602f83610cf4565b9150611236826111cf565b604082019050919050565b6000602082019050818103600083015261125a8161121e565b9050919050565b600061126c82610b87565b915061127783610b87565b925082820261128581610b87565b9150828204841483151761129c5761129b610c91565b5b5092915050565b7f4e487b7100000000000000000000000000000000000000000000000000000000600052601260045260246000fd5b60006112dd82610b87565b91506112e883610b87565b9250826112f8576112f76112a3565b5b82820490509291505056fea26469706673582212208e8a7c816765e7fb208201a8ecdf7ce6ef6f498da4c98a1ce31298e50f7deb6c64736f6c634300081c0033","opcodes":"PUSH1 0x80 PUSH1 0x40 MSTORE PUSH1 0x0 PUSH1 0x5 PUSH1 0x14 PUSH2 0x100 EXP DUP2 SLOAD DUP2 PUSH1 0xFF MUL NOT AND SWAP1 DUP4 ISZERO ISZERO MUL OR SWAP1 SSTORE POP CALLVALUE DUP1 ISZERO PUSH2 0x2B JUMPI PUSH1 0x0 DUP1 REVERT JUMPDEST POP PUSH1 0x40 MLOAD PUSH2 0x14A7 CODESIZE SUB DUP1 PUSH2 0x14A7 DUP4 CODECOPY DUP2 DUP2 ADD PUSH1 0x40 MSTORE DUP2 ADD SWAP1 PUSH2 0x4D SWAP2 SWAP1 PUSH2 0x132 JUMP JUMPDEST PUSH20 0x694AA1769357215DE4FAC081BF1F309ADC325306 PUSH1 0x1 PUSH1 0x0 PUSH2 0x100 EXP DUP2 SLOAD DUP2 PUSH20 0xFFFFFFFFFFFFFFFFFFFFFFFFFFFFFFFFFFFFFFFF MUL NOT AND SWAP1 DUP4 PUSH20 0xFFFFFFFFFFFFFFFFFFFFFFFFFFFFFFFFFFFFFFFF AND MUL OR SWAP1 SSTORE POP CALLER PUSH1 0x2 PUSH1 0x0 PUSH2 0x100 EXP DUP2 SLOAD DUP2 PUSH20 0xFFFFFFFFFFFFFFFFFFFFFFFFFFFFFFFFFFFFFFFF MUL NOT AND SWAP1 DUP4 PUSH20 0xFFFFFFFFFFFFFFFFFFFFFFFFFFFFFFFFFFFFFFFF AND MUL OR SWAP1 SSTORE POP TIMESTAMP PUSH1 0x3 DUP2 SWAP1 SSTORE POP DUP1 PUSH1 0x4 DUP2 SWAP1 SSTORE POP POP PUSH2 0x15F JUMP JUMPDEST PUSH1 0x0 DUP1 REVERT JUMPDEST PUSH1 0x0 DUP2 SWAP1 POP SWAP2 SWAP1 POP JUMP JUMPDEST PUSH2 0x10F DUP2 PUSH2 0xFC JUMP JUMPDEST DUP2 EQ PUSH2 0x11A JUMPI PUSH1 0x0 DUP1 REVERT JUMPDEST POP JUMP JUMPDEST PUSH1 0x0 DUP2 MLOAD SWAP1 POP PUSH2 0x12C DUP2 PUSH2 0x106 JUMP JUMPDEST SWAP3 SWAP2 POP POP JUMP JUMPDEST PUSH1 0x0 PUSH1 0x20 DUP3 DUP5 SUB SLT ISZERO PUSH2 0x148 JUMPI PUSH2 0x147 PUSH2 0xF7 JUMP JUMPDEST JUMPDEST PUSH1 0x0 PUSH2 0x156 DUP5 DUP3 DUP6 ADD PUSH2 0x11D JUMP JUMPDEST SWAP2 POP POP SWAP3 SWAP2 POP POP JUMP JUMPDEST PUSH2 0x1339 DUP1 PUSH2 0x16E PUSH1 0x0 CODECOPY PUSH1 0x0 RETURN INVALID PUSH1 0x80 PUSH1 0x40 MSTORE PUSH1 0x4 CALLDATASIZE LT PUSH2 0x86 JUMPI PUSH1 0x0 CALLDATALOAD PUSH1 0xE0 SHR DUP1 PUSH4 0xB60D4288 GT PUSH2 0x59 JUMPI DUP1 PUSH4 0xB60D4288 EQ PUSH2 0x121 JUMPI DUP1 PUSH4 0xBEA4DFB5 EQ PUSH2 0x12B JUMPI DUP1 PUSH4 0xD39CF006 EQ PUSH2 0x156 JUMPI DUP1 PUSH4 0xDA4658E0 EQ PUSH2 0x17F JUMPI DUP1 PUSH4 0xF2FDE38B EQ PUSH2 0x1AA JUMPI PUSH2 0x86 JUMP JUMPDEST DUP1 PUSH4 0x590E1AE3 EQ PUSH2 0x8B JUMPI DUP1 PUSH4 0x8DA5CB5B EQ PUSH2 0xA2 JUMPI DUP1 PUSH4 0x8EDD6EB6 EQ PUSH2 0xCD JUMPI DUP1 PUSH4 0x9F883A05 EQ PUSH2 0xE4 JUMPI JUMPDEST PUSH1 0x0 DUP1 REVERT JUMPDEST CALLVALUE DUP1 ISZERO PUSH2 0x97 JUMPI PUSH1 0x0 DUP1 REVERT JUMPDEST POP PUSH2 0xA0 PUSH2 0x1D3 JUMP JUMPDEST STOP JUMPDEST CALLVALUE DUP1 ISZERO PUSH2 0xAE JUMPI PUSH1 0x0 DUP1 REVERT JUMPDEST POP PUSH2 0xB7 PUSH2 0x47E JUMP JUMPDEST PUSH1 0x40 MLOAD PUSH2 0xC4 SWAP2 SWAP1 PUSH2 0xB0E JUMP JUMPDEST PUSH1 0x40 MLOAD DUP1 SWAP2 SUB SWAP1 RETURN JUMPDEST CALLVALUE DUP1 ISZERO PUSH2 0xD9 JUMPI PUSH1 0x0 DUP1 REVERT JUMPDEST POP PUSH2 0xE2 PUSH2 0x4A4 JUMP JUMPDEST STOP JUMPDEST CALLVALUE DUP1 ISZERO PUSH2 0xF0 JUMPI PUSH1 0x0 DUP1 REVERT JUMPDEST POP PUSH2 0x10B PUSH1 0x4 DUP1 CALLDATASIZE SUB DUP2 ADD SWAP1 PUSH2 0x106 SWAP2 SWAP1 PUSH2 0xB5A JUMP JUMPDEST PUSH2 0x73C JUMP JUMPDEST PUSH1 0x40 MLOAD PUSH2 0x118 SWAP2 SWAP1 PUSH2 0xBA0 JUMP JUMPDEST PUSH1 0x40 MLOAD DUP1 SWAP2 SUB SWAP1 RETURN JUMPDEST PUSH2 0x129 PUSH2 0x754 JUMP JUMPDEST STOP JUMPDEST CALLVALUE DUP1 ISZERO PUSH2 0x137 JUMPI PUSH1 0x0 DUP1 REVERT JUMPDEST POP PUSH2 0x140 PUSH2 0x83E JUMP JUMPDEST PUSH1 0x40 MLOAD PUSH2 0x14D SWAP2 SWAP1 PUSH2 0xBD4 JUMP JUMPDEST PUSH1 0x40 MLOAD DUP1 SWAP2 SUB SWAP1 RETURN JUMPDEST CALLVALUE DUP1 ISZERO PUSH2 0x162 JUMPI PUSH1 0x0 DUP1 REVERT JUMPDEST POP PUSH2 0x17D PUSH1 0x4 DUP1 CALLDATASIZE SUB DUP2 ADD SWAP1 PUSH2 0x178 SWAP2 SWAP1 PUSH2 0xC1B JUMP JUMPDEST PUSH2 0x8DF JUMP JUMPDEST STOP JUMPDEST CALLVALUE DUP1 ISZERO PUSH2 0x18B JUMPI PUSH1 0x0 DUP1 REVERT JUMPDEST POP PUSH2 0x194 PUSH2 0x9B6 JUMP JUMPDEST PUSH1 0x40 MLOAD PUSH2 0x1A1 SWAP2 SWAP1 PUSH2 0xC76 JUMP JUMPDEST PUSH1 0x40 MLOAD DUP1 SWAP2 SUB SWAP1 RETURN JUMPDEST CALLVALUE DUP1 ISZERO PUSH2 0x1B6 JUMPI PUSH1 0x0 DUP1 REVERT JUMPDEST POP PUSH2 0x1D1 PUSH1 0x4 DUP1 CALLDATASIZE SUB DUP2 ADD SWAP1 PUSH2 0x1CC SWAP2 SWAP1 PUSH2 0xB5A JUMP JUMPDEST PUSH2 0x9C9 JUMP JUMPDEST STOP JUMPDEST PUSH1 0x4 SLOAD PUSH1 0x3 SLOAD PUSH2 0x1E3 SWAP2 SWAP1 PUSH2 0xCC0 JUMP JUMPDEST TIMESTAMP LT ISZERO PUSH2 0x225 JUMPI PUSH1 0x40 MLOAD PUSH32 0x8C379A000000000000000000000000000000000000000000000000000000000 DUP2 MSTORE PUSH1 0x4 ADD PUSH2 0x21C SWAP1 PUSH2 0xD51 JUMP JUMPDEST PUSH1 0x40 MLOAD DUP1 SWAP2 SUB SWAP1 REVERT JUMPDEST PUSH9 0x3635C9ADC5DEA00000 PUSH2 0x238 SELFBALANCE PUSH2 0xA9D JUMP JUMPDEST LT PUSH2 0x278 JUMPI PUSH1 0x40 MLOAD PUSH32 0x8C379A000000000000000000000000000000000000000000000000000000000 DUP2 MSTORE PUSH1 0x4 ADD PUSH2 0x26F SWAP1 PUSH2 0xDBD JUMP JUMPDEST PUSH1 0x40 MLOAD DUP1 SWAP2 SUB SWAP1 REVERT JUMPDEST PUSH1 0x0 DUP1 PUSH1 0x0 CALLER PUSH20 0xFFFFFFFFFFFFFFFFFFFFFFFFFFFFFFFFFFFFFFFF AND PUSH20 0xFFFFFFFFFFFFFFFFFFFFFFFFFFFFFFFFFFFFFFFF AND DUP2 MSTORE PUSH1 0x20 ADD SWAP1 DUP2 MSTORE PUSH1 0x20 ADD PUSH1 0x0 KECCAK256 SLOAD SUB PUSH2 0x2F9 JUMPI PUSH1 0x40 MLOAD PUSH32 0x8C379A000000000000000000000000000000000000000000000000000000000 DUP2 MSTORE PUSH1 0x4 ADD PUSH2 0x2F0 SWAP1 PUSH2 0xE29 JUMP JUMPDEST PUSH1 0x40 MLOAD DUP1 SWAP2 SUB SWAP1 REVERT JUMPDEST PUSH1 0x4 SLOAD PUSH1 0x3 SLOAD PUSH2 0x309 SWAP2 SWAP1 PUSH2 0xCC0 JUMP JUMPDEST TIMESTAMP LT ISZERO PUSH2 0x34B JUMPI PUSH1 0x40 MLOAD PUSH32 0x8C379A000000000000000000000000000000000000000000000000000000000 DUP2 MSTORE PUSH1 0x4 ADD PUSH2 0x342 SWAP1 PUSH2 0xD51 JUMP JUMPDEST PUSH1 0x40 MLOAD DUP1 SWAP2 SUB SWAP1 REVERT JUMPDEST PUSH1 0x0 CALLER PUSH20 0xFFFFFFFFFFFFFFFFFFFFFFFFFFFFFFFFFFFFFFFF AND PUSH1 0x0 DUP1 CALLER PUSH20 0xFFFFFFFFFFFFFFFFFFFFFFFFFFFFFFFFFFFFFFFF AND PUSH20 0xFFFFFFFFFFFFFFFFFFFFFFFFFFFFFFFFFFFFFFFF AND DUP2 MSTORE PUSH1 0x20 ADD SWAP1 DUP2 MSTORE PUSH1 0x20 ADD PUSH1 0x0 KECCAK256 SLOAD PUSH1 0x40 MLOAD PUSH2 0x3AF SWAP1 PUSH2 0xE7A JUMP JUMPDEST PUSH1 0x0 PUSH1 0x40 MLOAD DUP1 DUP4 SUB DUP2 DUP6 DUP8 GAS CALL SWAP3 POP POP POP RETURNDATASIZE DUP1 PUSH1 0x0 DUP2 EQ PUSH2 0x3EC JUMPI PUSH1 0x40 MLOAD SWAP2 POP PUSH1 0x1F NOT PUSH1 0x3F RETURNDATASIZE ADD AND DUP3 ADD PUSH1 0x40 MSTORE RETURNDATASIZE DUP3 MSTORE RETURNDATASIZE PUSH1 0x0 PUSH1 0x20 DUP5 ADD RETURNDATACOPY PUSH2 0x3F1 JUMP JUMPDEST PUSH1 0x60 SWAP2 POP JUMPDEST POP POP DUP1 SWAP2 POP POP DUP1 PUSH2 0x437 JUMPI PUSH1 0x40 MLOAD PUSH32 0x8C379A000000000000000000000000000000000000000000000000000000000 DUP2 MSTORE PUSH1 0x4 ADD PUSH2 0x42E SWAP1 PUSH2 0xEDB JUMP JUMPDEST PUSH1 0x40 MLOAD DUP1 SWAP2 SUB SWAP1 REVERT JUMPDEST PUSH1 0x0 DUP1 PUSH1 0x0 CALLER PUSH20 0xFFFFFFFFFFFFFFFFFFFFFFFFFFFFFFFFFFFFFFFF AND PUSH20 0xFFFFFFFFFFFFFFFFFFFFFFFFFFFFFFFFFFFFFFFF AND DUP2 MSTORE PUSH1 0x20 ADD SWAP1 DUP2 MSTORE PUSH1 0x20 ADD PUSH1 0x0 KECCAK256 DUP2 SWAP1 SSTORE POP POP JUMP JUMPDEST PUSH1 0x2 PUSH1 0x0 SWAP1 SLOAD SWAP1 PUSH2 0x100 EXP SWAP1 DIV PUSH20 0xFFFFFFFFFFFFFFFFFFFFFFFFFFFFFFFFFFFFFFFF AND DUP2 JUMP JUMPDEST PUSH1 0x4 SLOAD PUSH1 0x3 SLOAD PUSH2 0x4B4 SWAP2 SWAP1 PUSH2 0xCC0 JUMP JUMPDEST TIMESTAMP LT ISZERO PUSH2 0x4F6 JUMPI PUSH1 0x40 MLOAD PUSH32 0x8C379A000000000000000000000000000000000000000000000000000000000 DUP2 MSTORE PUSH1 0x4 ADD PUSH2 0x4ED SWAP1 PUSH2 0xD51 JUMP JUMPDEST PUSH1 0x40 MLOAD DUP1 SWAP2 SUB SWAP1 REVERT JUMPDEST PUSH1 0x2 PUSH1 0x0 SWAP1 SLOAD SWAP1 PUSH2 0x100 EXP SWAP1 DIV PUSH20 0xFFFFFFFFFFFFFFFFFFFFFFFFFFFFFFFFFFFFFFFF AND PUSH20 0xFFFFFFFFFFFFFFFFFFFFFFFFFFFFFFFFFFFFFFFF AND CALLER PUSH20 0xFFFFFFFFFFFFFFFFFFFFFFFFFFFFFFFFFFFFFFFF AND EQ PUSH2 0x586 JUMPI PUSH1 0x40 MLOAD PUSH32 0x8C379A000000000000000000000000000000000000000000000000000000000 DUP2 MSTORE PUSH1 0x4 ADD PUSH2 0x57D SWAP1 PUSH2 0xF6D JUMP JUMPDEST PUSH1 0x40 MLOAD DUP1 SWAP2 SUB SWAP1 REVERT JUMPDEST PUSH9 0x3635C9ADC5DEA00000 PUSH2 0x599 SELFBALANCE PUSH2 0xA9D JUMP JUMPDEST LT ISZERO PUSH2 0x5DA JUMPI PUSH1 0x40 MLOAD PUSH32 0x8C379A000000000000000000000000000000000000000000000000000000000 DUP2 MSTORE PUSH1 0x4 ADD PUSH2 0x5D1 SWAP1 PUSH2 0xFD9 JUMP JUMPDEST PUSH1 0x40 MLOAD DUP1 SWAP2 SUB SWAP1 REVERT JUMPDEST PUSH1 0x4 SLOAD PUSH1 0x3 SLOAD PUSH2 0x5EA SWAP2 SWAP1 PUSH2 0xCC0 JUMP JUMPDEST TIMESTAMP LT ISZERO PUSH2 0x62C JUMPI PUSH1 0x40 MLOAD PUSH32 0x8C379A000000000000000000000000000000000000000000000000000000000 DUP2 MSTORE PUSH1 0x4 ADD PUSH2 0x623 SWAP1 PUSH2 0xD51 JUMP JUMPDEST PUSH1 0x40 MLOAD DUP1 SWAP2 SUB SWAP1 REVERT JUMPDEST PUSH1 0x0 CALLER PUSH20 0xFFFFFFFFFFFFFFFFFFFFFFFFFFFFFFFFFFFFFFFF AND SELFBALANCE PUSH1 0x40 MLOAD PUSH2 0x652 SWAP1 PUSH2 0xE7A JUMP JUMPDEST PUSH1 0x0 PUSH1 0x40 MLOAD DUP1 DUP4 SUB DUP2 DUP6 DUP8 GAS CALL SWAP3 POP POP POP RETURNDATASIZE DUP1 PUSH1 0x0 DUP2 EQ PUSH2 0x68F JUMPI PUSH1 0x40 MLOAD SWAP2 POP PUSH1 0x1F NOT PUSH1 0x3F RETURNDATASIZE ADD AND DUP3 ADD PUSH1 0x40 MSTORE RETURNDATASIZE DUP3 MSTORE RETURNDATASIZE PUSH1 0x0 PUSH1 0x20 DUP5 ADD RETURNDATACOPY PUSH2 0x694 JUMP JUMPDEST PUSH1 0x60 SWAP2 POP JUMPDEST POP POP DUP1 SWAP2 POP POP DUP1 PUSH2 0x6DA JUMPI PUSH1 0x40 MLOAD PUSH32 0x8C379A000000000000000000000000000000000000000000000000000000000 DUP2 MSTORE PUSH1 0x4 ADD PUSH2 0x6D1 SWAP1 PUSH2 0xEDB JUMP JUMPDEST PUSH1 0x40 MLOAD DUP1 SWAP2 SUB SWAP1 REVERT JUMPDEST PUSH1 0x0 DUP1 PUSH1 0x0 CALLER PUSH20 0xFFFFFFFFFFFFFFFFFFFFFFFFFFFFFFFFFFFFFFFF AND PUSH20 0xFFFFFFFFFFFFFFFFFFFFFFFFFFFFFFFFFFFFFFFF AND DUP2 MSTORE PUSH1 0x20 ADD SWAP1 DUP2 MSTORE PUSH1 0x20 ADD PUSH1 0x0 KECCAK256 DUP2 SWAP1 SSTORE POP PUSH1 0x1 PUSH1 0x5 PUSH1 0x14 PUSH2 0x100 EXP DUP2 SLOAD DUP2 PUSH1 0xFF MUL NOT AND SWAP1 DUP4 ISZERO ISZERO MUL OR SWAP1 SSTORE POP POP JUMP JUMPDEST PUSH1 0x0 PUSH1 0x20 MSTORE DUP1 PUSH1 0x0 MSTORE PUSH1 0x40 PUSH1 0x0 KECCAK256 PUSH1 0x0 SWAP2 POP SWAP1 POP SLOAD DUP2 JUMP JUMPDEST PUSH8 0xDE0B6B3A7640000 PUSH2 0x766 CALLVALUE PUSH2 0xA9D JUMP JUMPDEST LT ISZERO PUSH2 0x7A7 JUMPI PUSH1 0x40 MLOAD PUSH32 0x8C379A000000000000000000000000000000000000000000000000000000000 DUP2 MSTORE PUSH1 0x4 ADD PUSH2 0x79E SWAP1 PUSH2 0x1045 JUMP JUMPDEST PUSH1 0x40 MLOAD DUP1 SWAP2 SUB SWAP1 REVERT JUMPDEST PUSH1 0x4 SLOAD PUSH1 0x3 SLOAD PUSH2 0x7B7 SWAP2 SWAP1 PUSH2 0xCC0 JUMP JUMPDEST TIMESTAMP GT ISZERO PUSH2 0x7F9 JUMPI PUSH1 0x40 MLOAD PUSH32 0x8C379A000000000000000000000000000000000000000000000000000000000 DUP2 MSTORE PUSH1 0x4 ADD PUSH2 0x7F0 SWAP1 PUSH2 0x10B1 JUMP JUMPDEST PUSH1 0x40 MLOAD DUP1 SWAP2 SUB SWAP1 REVERT JUMPDEST CALLVALUE PUSH1 0x0 DUP1 CALLER PUSH20 0xFFFFFFFFFFFFFFFFFFFFFFFFFFFFFFFFFFFFFFFF AND PUSH20 0xFFFFFFFFFFFFFFFFFFFFFFFFFFFFFFFFFFFFFFFF AND DUP2 MSTORE PUSH1 0x20 ADD SWAP1 DUP2 MSTORE PUSH1 0x20 ADD PUSH1 0x0 KECCAK256 DUP2 SWAP1 SSTORE POP JUMP JUMPDEST PUSH1 0x0 DUP1 PUSH1 0x1 PUSH1 0x0 SWAP1 SLOAD SWAP1 PUSH2 0x100 EXP SWAP1 DIV PUSH20 0xFFFFFFFFFFFFFFFFFFFFFFFFFFFFFFFFFFFFFFFF AND PUSH20 0xFFFFFFFFFFFFFFFFFFFFFFFFFFFFFFFFFFFFFFFF AND PUSH4 0xFEAF968C PUSH1 0x40 MLOAD DUP2 PUSH4 0xFFFFFFFF AND PUSH1 0xE0 SHL DUP2 MSTORE PUSH1 0x4 ADD PUSH1 0xA0 PUSH1 0x40 MLOAD DUP1 DUP4 SUB DUP2 DUP7 GAS STATICCALL ISZERO DUP1 ISZERO PUSH2 0x8AE JUMPI RETURNDATASIZE PUSH1 0x0 DUP1 RETURNDATACOPY RETURNDATASIZE PUSH1 0x0 REVERT JUMPDEST POP POP POP POP PUSH1 0x40 MLOAD RETURNDATASIZE PUSH1 0x1F NOT PUSH1 0x1F DUP3 ADD AND DUP3 ADD DUP1 PUSH1 0x40 MSTORE POP DUP2 ADD SWAP1 PUSH2 0x8D2 SWAP2 SWAP1 PUSH2 0x1154 JUMP JUMPDEST POP POP POP SWAP2 POP POP DUP1 SWAP2 POP POP SWAP1 JUMP JUMPDEST PUSH1 0x5 PUSH1 0x0 SWAP1 SLOAD SWAP1 PUSH2 0x100 EXP SWAP1 DIV PUSH20 0xFFFFFFFFFFFFFFFFFFFFFFFFFFFFFFFFFFFFFFFF AND PUSH20 0xFFFFFFFFFFFFFFFFFFFFFFFFFFFFFFFFFFFFFFFF AND CALLER PUSH20 0xFFFFFFFFFFFFFFFFFFFFFFFFFFFFFFFFFFFFFFFF AND EQ PUSH2 0x96F JUMPI PUSH1 0x40 MLOAD PUSH32 0x8C379A000000000000000000000000000000000000000000000000000000000 DUP2 MSTORE PUSH1 0x4 ADD PUSH2 0x966 SWAP1 PUSH2 0x1241 JUMP JUMPDEST PUSH1 0x40 MLOAD DUP1 SWAP2 SUB SWAP1 REVERT JUMPDEST DUP1 PUSH1 0x0 DUP1 DUP5 PUSH20 0xFFFFFFFFFFFFFFFFFFFFFFFFFFFFFFFFFFFFFFFF AND PUSH20 0xFFFFFFFFFFFFFFFFFFFFFFFFFFFFFFFFFFFFFFFF AND DUP2 MSTORE PUSH1 0x20 ADD SWAP1 DUP2 MSTORE PUSH1 0x20 ADD PUSH1 0x0 KECCAK256 DUP2 SWAP1 SSTORE POP POP POP JUMP JUMPDEST PUSH1 0x5 PUSH1 0x14 SWAP1 SLOAD SWAP1 PUSH2 0x100 EXP SWAP1 DIV PUSH1 0xFF AND DUP2 JUMP JUMPDEST PUSH1 0x2 PUSH1 0x0 SWAP1 SLOAD SWAP1 PUSH2 0x100 EXP SWAP1 DIV PUSH20 0xFFFFFFFFFFFFFFFFFFFFFFFFFFFFFFFFFFFFFFFF AND PUSH20 0xFFFFFFFFFFFFFFFFFFFFFFFFFFFFFFFFFFFFFFFF AND CALLER PUSH20 0xFFFFFFFFFFFFFFFFFFFFFFFFFFFFFFFFFFFFFFFF AND EQ PUSH2 0xA59 JUMPI PUSH1 0x40 MLOAD PUSH32 0x8C379A000000000000000000000000000000000000000000000000000000000 DUP2 MSTORE PUSH1 0x4 ADD PUSH2 0xA50 SWAP1 PUSH2 0xF6D JUMP JUMPDEST PUSH1 0x40 MLOAD DUP1 SWAP2 SUB SWAP1 REVERT JUMPDEST DUP1 PUSH1 0x2 PUSH1 0x0 PUSH2 0x100 EXP DUP2 SLOAD DUP2 PUSH20 0xFFFFFFFFFFFFFFFFFFFFFFFFFFFFFFFFFFFFFFFF MUL NOT AND SWAP1 DUP4 PUSH20 0xFFFFFFFFFFFFFFFFFFFFFFFFFFFFFFFFFFFFFFFF AND MUL OR SWAP1 SSTORE POP POP JUMP JUMPDEST PUSH1 0x0 DUP1 PUSH2 0xAA8 PUSH2 0x83E JUMP JUMPDEST SWAP1 POP PUSH4 0x5F5E100 DUP2 DUP5 PUSH2 0xABB SWAP2 SWAP1 PUSH2 0x1261 JUMP JUMPDEST PUSH2 0xAC5 SWAP2 SWAP1 PUSH2 0x12D2 JUMP JUMPDEST SWAP2 POP POP SWAP2 SWAP1 POP JUMP JUMPDEST PUSH1 0x0 PUSH20 0xFFFFFFFFFFFFFFFFFFFFFFFFFFFFFFFFFFFFFFFF DUP3 AND SWAP1 POP SWAP2 SWAP1 POP JUMP JUMPDEST PUSH1 0x0 PUSH2 0xAF8 DUP3 PUSH2 0xACD JUMP JUMPDEST SWAP1 POP SWAP2 SWAP1 POP JUMP JUMPDEST PUSH2 0xB08 DUP2 PUSH2 0xAED JUMP JUMPDEST DUP3 MSTORE POP POP JUMP JUMPDEST PUSH1 0x0 PUSH1 0x20 DUP3 ADD SWAP1 POP PUSH2 0xB23 PUSH1 0x0 DUP4 ADD DUP5 PUSH2 0xAFF JUMP JUMPDEST SWAP3 SWAP2 POP POP JUMP JUMPDEST PUSH1 0x0 DUP1 REVERT JUMPDEST PUSH2 0xB37 DUP2 PUSH2 0xAED JUMP JUMPDEST DUP2 EQ PUSH2 0xB42 JUMPI PUSH1 0x0 DUP1 REVERT JUMPDEST POP JUMP JUMPDEST PUSH1 0x0 DUP2 CALLDATALOAD SWAP1 POP PUSH2 0xB54 DUP2 PUSH2 0xB2E JUMP JUMPDEST SWAP3 SWAP2 POP POP JUMP JUMPDEST PUSH1 0x0 PUSH1 0x20 DUP3 DUP5 SUB SLT ISZERO PUSH2 0xB70 JUMPI PUSH2 0xB6F PUSH2 0xB29 JUMP JUMPDEST JUMPDEST PUSH1 0x0 PUSH2 0xB7E DUP5 DUP3 DUP6 ADD PUSH2 0xB45 JUMP JUMPDEST SWAP2 POP POP SWAP3 SWAP2 POP POP JUMP JUMPDEST PUSH1 0x0 DUP2 SWAP1 POP SWAP2 SWAP1 POP JUMP JUMPDEST PUSH2 0xB9A DUP2 PUSH2 0xB87 JUMP JUMPDEST DUP3 MSTORE POP POP JUMP JUMPDEST PUSH1 0x0 PUSH1 0x20 DUP3 ADD SWAP1 POP PUSH2 0xBB5 PUSH1 0x0 DUP4 ADD DUP5 PUSH2 0xB91 JUMP JUMPDEST SWAP3 SWAP2 POP POP JUMP JUMPDEST PUSH1 0x0 DUP2 SWAP1 POP SWAP2 SWAP1 POP JUMP JUMPDEST PUSH2 0xBCE DUP2 PUSH2 0xBBB JUMP JUMPDEST DUP3 MSTORE POP POP JUMP JUMPDEST PUSH1 0x0 PUSH1 0x20 DUP3 ADD SWAP1 POP PUSH2 0xBE9 PUSH1 0x0 DUP4 ADD DUP5 PUSH2 0xBC5 JUMP JUMPDEST SWAP3 SWAP2 POP POP JUMP JUMPDEST PUSH2 0xBF8 DUP2 PUSH2 0xB87 JUMP JUMPDEST DUP2 EQ PUSH2 0xC03 JUMPI PUSH1 0x0 DUP1 REVERT JUMPDEST POP JUMP JUMPDEST PUSH1 0x0 DUP2 CALLDATALOAD SWAP1 POP PUSH2 0xC15 DUP2 PUSH2 0xBEF JUMP JUMPDEST SWAP3 SWAP2 POP POP JUMP JUMPDEST PUSH1 0x0 DUP1 PUSH1 0x40 DUP4 DUP6 SUB SLT ISZERO PUSH2 0xC32 JUMPI PUSH2 0xC31 PUSH2 0xB29 JUMP JUMPDEST JUMPDEST PUSH1 0x0 PUSH2 0xC40 DUP6 DUP3 DUP7 ADD PUSH2 0xB45 JUMP JUMPDEST SWAP3 POP POP PUSH1 0x20 PUSH2 0xC51 DUP6 DUP3 DUP7 ADD PUSH2 0xC06 JUMP JUMPDEST SWAP2 POP POP SWAP3 POP SWAP3 SWAP1 POP JUMP JUMPDEST PUSH1 0x0 DUP2 ISZERO ISZERO SWAP1 POP SWAP2 SWAP1 POP JUMP JUMPDEST PUSH2 0xC70 DUP2 PUSH2 0xC5B JUMP JUMPDEST DUP3 MSTORE POP POP JUMP JUMPDEST PUSH1 0x0 PUSH1 0x20 DUP3 ADD SWAP1 POP PUSH2 0xC8B PUSH1 0x0 DUP4 ADD DUP5 PUSH2 0xC67 JUMP JUMPDEST SWAP3 SWAP2 POP POP JUMP JUMPDEST PUSH32 0x4E487B7100000000000000000000000000000000000000000000000000000000 PUSH1 0x0 MSTORE PUSH1 0x11 PUSH1 0x4 MSTORE PUSH1 0x24 PUSH1 0x0 REVERT JUMPDEST PUSH1 0x0 PUSH2 0xCCB DUP3 PUSH2 0xB87 JUMP JUMPDEST SWAP2 POP PUSH2 0xCD6 DUP4 PUSH2 0xB87 JUMP JUMPDEST SWAP3 POP DUP3 DUP3 ADD SWAP1 POP DUP1 DUP3 GT ISZERO PUSH2 0xCEE JUMPI PUSH2 0xCED PUSH2 0xC91 JUMP JUMPDEST JUMPDEST SWAP3 SWAP2 POP POP JUMP JUMPDEST PUSH1 0x0 DUP3 DUP3 MSTORE PUSH1 0x20 DUP3 ADD SWAP1 POP SWAP3 SWAP2 POP POP JUMP JUMPDEST PUSH32 0x77696E646F77206973206E6F7420636C6F736564000000000000000000000000 PUSH1 0x0 DUP3 ADD MSTORE POP JUMP JUMPDEST PUSH1 0x0 PUSH2 0xD3B PUSH1 0x14 DUP4 PUSH2 0xCF4 JUMP JUMPDEST SWAP2 POP PUSH2 0xD46 DUP3 PUSH2 0xD05 JUMP JUMPDEST PUSH1 0x20 DUP3 ADD SWAP1 POP SWAP2 SWAP1 POP JUMP JUMPDEST PUSH1 0x0 PUSH1 0x20 DUP3 ADD SWAP1 POP DUP2 DUP2 SUB PUSH1 0x0 DUP4 ADD MSTORE PUSH2 0xD6A DUP2 PUSH2 0xD2E JUMP JUMPDEST SWAP1 POP SWAP2 SWAP1 POP JUMP JUMPDEST PUSH32 0x5461726765742069732072656163686564000000000000000000000000000000 PUSH1 0x0 DUP3 ADD MSTORE POP JUMP JUMPDEST PUSH1 0x0 PUSH2 0xDA7 PUSH1 0x11 DUP4 PUSH2 0xCF4 JUMP JUMPDEST SWAP2 POP PUSH2 0xDB2 DUP3 PUSH2 0xD71 JUMP JUMPDEST PUSH1 0x20 DUP3 ADD SWAP1 POP SWAP2 SWAP1 POP JUMP JUMPDEST PUSH1 0x0 PUSH1 0x20 DUP3 ADD SWAP1 POP DUP2 DUP2 SUB PUSH1 0x0 DUP4 ADD MSTORE PUSH2 0xDD6 DUP2 PUSH2 0xD9A JUMP JUMPDEST SWAP1 POP SWAP2 SWAP1 POP JUMP JUMPDEST PUSH32 0x7468657265206973206E6F2066756E6420666F7220796F750000000000000000 PUSH1 0x0 DUP3 ADD MSTORE POP JUMP JUMPDEST PUSH1 0x0 PUSH2 0xE13 PUSH1 0x18 DUP4 PUSH2 0xCF4 JUMP JUMPDEST SWAP2 POP PUSH2 0xE1E DUP3 PUSH2 0xDDD JUMP JUMPDEST PUSH1 0x20 DUP3 ADD SWAP1 POP SWAP2 SWAP1 POP JUMP JUMPDEST PUSH1 0x0 PUSH1 0x20 DUP3 ADD SWAP1 POP DUP2 DUP2 SUB PUSH1 0x0 DUP4 ADD MSTORE PUSH2 0xE42 DUP2 PUSH2 0xE06 JUMP JUMPDEST SWAP1 POP SWAP2 SWAP1 POP JUMP JUMPDEST PUSH1 0x0 DUP2 SWAP1 POP SWAP3 SWAP2 POP POP JUMP JUMPDEST POP JUMP JUMPDEST PUSH1 0x0 PUSH2 0xE64 PUSH1 0x0 DUP4 PUSH2 0xE49 JUMP JUMPDEST SWAP2 POP PUSH2 0xE6F DUP3 PUSH2 0xE54 JUMP JUMPDEST PUSH1 0x0 DUP3 ADD SWAP1 POP SWAP2 SWAP1 POP JUMP JUMPDEST PUSH1 0x0 PUSH2 0xE85 DUP3 PUSH2 0xE57 JUMP JUMPDEST SWAP2 POP DUP2 SWAP1 POP SWAP2 SWAP1 POP JUMP JUMPDEST PUSH32 0x7472616E73666572207478206661696C65640000000000000000000000000000 PUSH1 0x0 DUP3 ADD MSTORE POP JUMP JUMPDEST PUSH1 0x0 PUSH2 0xEC5 PUSH1 0x12 DUP4 PUSH2 0xCF4 JUMP JUMPDEST SWAP2 POP PUSH2 0xED0 DUP3 PUSH2 0xE8F JUMP JUMPDEST PUSH1 0x20 DUP3 ADD SWAP1 POP SWAP2 SWAP1 POP JUMP JUMPDEST PUSH1 0x0 PUSH1 0x20 DUP3 ADD SWAP1 POP DUP2 DUP2 SUB PUSH1 0x0 DUP4 ADD MSTORE PUSH2 0xEF4 DUP2 PUSH2 0xEB8 JUMP JUMPDEST SWAP1 POP SWAP2 SWAP1 POP JUMP JUMPDEST PUSH32 0x746869732066756E63696F6E742063616E206F6E6C792062652063616C6C6564 PUSH1 0x0 DUP3 ADD MSTORE PUSH32 0x206279206F776E65720000000000000000000000000000000000000000000000 PUSH1 0x20 DUP3 ADD MSTORE POP JUMP JUMPDEST PUSH1 0x0 PUSH2 0xF57 PUSH1 0x29 DUP4 PUSH2 0xCF4 JUMP JUMPDEST SWAP2 POP PUSH2 0xF62 DUP3 PUSH2 0xEFB JUMP JUMPDEST PUSH1 0x40 DUP3 ADD SWAP1 POP SWAP2 SWAP1 POP JUMP JUMPDEST PUSH1 0x0 PUSH1 0x20 DUP3 ADD SWAP1 POP DUP2 DUP2 SUB PUSH1 0x0 DUP4 ADD MSTORE PUSH2 0xF86 DUP2 PUSH2 0xF4A JUMP JUMPDEST SWAP1 POP SWAP2 SWAP1 POP JUMP JUMPDEST PUSH32 0x546172676574206973206E6F7420726561636865640000000000000000000000 PUSH1 0x0 DUP3 ADD MSTORE POP JUMP JUMPDEST PUSH1 0x0 PUSH2 0xFC3 PUSH1 0x15 DUP4 PUSH2 0xCF4 JUMP JUMPDEST SWAP2 POP PUSH2 0xFCE DUP3 PUSH2 0xF8D JUMP JUMPDEST PUSH1 0x20 DUP3 ADD SWAP1 POP SWAP2 SWAP1 POP JUMP JUMPDEST PUSH1 0x0 PUSH1 0x20 DUP3 ADD SWAP1 POP DUP2 DUP2 SUB PUSH1 0x0 DUP4 ADD MSTORE PUSH2 0xFF2 DUP2 PUSH2 0xFB6 JUMP JUMPDEST SWAP1 POP SWAP2 SWAP1 POP JUMP JUMPDEST PUSH32 0x73656E64206D6F72652065746800000000000000000000000000000000000000 PUSH1 0x0 DUP3 ADD MSTORE POP JUMP JUMPDEST PUSH1 0x0 PUSH2 0x102F PUSH1 0xD DUP4 PUSH2 0xCF4 JUMP JUMPDEST SWAP2 POP PUSH2 0x103A DUP3 PUSH2 0xFF9 JUMP JUMPDEST PUSH1 0x20 DUP3 ADD SWAP1 POP SWAP2 SWAP1 POP JUMP JUMPDEST PUSH1 0x0 PUSH1 0x20 DUP3 ADD SWAP1 POP DUP2 DUP2 SUB PUSH1 0x0 DUP4 ADD MSTORE PUSH2 0x105E DUP2 PUSH2 0x1022 JUMP JUMPDEST SWAP1 POP SWAP2 SWAP1 POP JUMP JUMPDEST PUSH32 0x77696E646F7720697320636C6F73656400000000000000000000000000000000 PUSH1 0x0 DUP3 ADD MSTORE POP JUMP JUMPDEST PUSH1 0x0 PUSH2 0x109B PUSH1 0x10 DUP4 PUSH2 0xCF4 JUMP JUMPDEST SWAP2 POP PUSH2 0x10A6 DUP3 PUSH2 0x1065 JUMP JUMPDEST PUSH1 0x20 DUP3 ADD SWAP1 POP SWAP2 SWAP1 POP JUMP JUMPDEST PUSH1 0x0 PUSH1 0x20 DUP3 ADD SWAP1 POP DUP2 DUP2 SUB PUSH1 0x0 DUP4 ADD MSTORE PUSH2 0x10CA DUP2 PUSH2 0x108E JUMP JUMPDEST SWAP1 POP SWAP2 SWAP1 POP JUMP JUMPDEST PUSH1 0x0 PUSH10 0xFFFFFFFFFFFFFFFFFFFF DUP3 AND SWAP1 POP SWAP2 SWAP1 POP JUMP JUMPDEST PUSH2 0x10F0 DUP2 PUSH2 0x10D1 JUMP JUMPDEST DUP2 EQ PUSH2 0x10FB JUMPI PUSH1 0x0 DUP1 REVERT JUMPDEST POP JUMP JUMPDEST PUSH1 0x0 DUP2 MLOAD SWAP1 POP PUSH2 0x110D DUP2 PUSH2 0x10E7 JUMP JUMPDEST SWAP3 SWAP2 POP POP JUMP JUMPDEST PUSH2 0x111C DUP2 PUSH2 0xBBB JUMP JUMPDEST DUP2 EQ PUSH2 0x1127 JUMPI PUSH1 0x0 DUP1 REVERT JUMPDEST POP JUMP JUMPDEST PUSH1 0x0 DUP2 MLOAD SWAP1 POP PUSH2 0x1139 DUP2 PUSH2 0x1113 JUMP JUMPDEST SWAP3 SWAP2 POP POP JUMP JUMPDEST PUSH1 0x0 DUP2 MLOAD SWAP1 POP PUSH2 0x114E DUP2 PUSH2 0xBEF JUMP JUMPDEST SWAP3 SWAP2 POP POP JUMP JUMPDEST PUSH1 0x0 DUP1 PUSH1 0x0 DUP1 PUSH1 0x0 PUSH1 0xA0 DUP7 DUP9 SUB SLT ISZERO PUSH2 0x1170 JUMPI PUSH2 0x116F PUSH2 0xB29 JUMP JUMPDEST JUMPDEST PUSH1 0x0 PUSH2 0x117E DUP9 DUP3 DUP10 ADD PUSH2 0x10FE JUMP JUMPDEST SWAP6 POP POP PUSH1 0x20 PUSH2 0x118F DUP9 DUP3 DUP10 ADD PUSH2 0x112A JUMP JUMPDEST SWAP5 POP POP PUSH1 0x40 PUSH2 0x11A0 DUP9 DUP3 DUP10 ADD PUSH2 0x113F JUMP JUMPDEST SWAP4 POP POP PUSH1 0x60 PUSH2 0x11B1 DUP9 DUP3 DUP10 ADD PUSH2 0x113F JUMP JUMPDEST SWAP3 POP POP PUSH1 0x80 PUSH2 0x11C2 DUP9 DUP3 DUP10 ADD PUSH2 0x10FE JUMP JUMPDEST SWAP2 POP POP SWAP3 SWAP6 POP SWAP3 SWAP6 SWAP1 SWAP4 POP JUMP JUMPDEST PUSH32 0x796F7520646F206E6F742068617665207065726D697373696F6E20746F206361 PUSH1 0x0 DUP3 ADD MSTORE PUSH32 0x6C6C20746869732066756E74696F6E0000000000000000000000000000000000 PUSH1 0x20 DUP3 ADD MSTORE POP JUMP JUMPDEST PUSH1 0x0 PUSH2 0x122B PUSH1 0x2F DUP4 PUSH2 0xCF4 JUMP JUMPDEST SWAP2 POP PUSH2 0x1236 DUP3 PUSH2 0x11CF JUMP JUMPDEST PUSH1 0x40 DUP3 ADD SWAP1 POP SWAP2 SWAP1 POP JUMP JUMPDEST PUSH1 0x0 PUSH1 0x20 DUP3 ADD SWAP1 POP DUP2 DUP2 SUB PUSH1 0x0 DUP4 ADD MSTORE PUSH2 0x125A DUP2 PUSH2 0x121E JUMP JUMPDEST SWAP1 POP SWAP2 SWAP1 POP JUMP JUMPDEST PUSH1 0x0 PUSH2 0x126C DUP3 PUSH2 0xB87 JUMP JUMPDEST SWAP2 POP PUSH2 0x1277 DUP4 PUSH2 0xB87 JUMP JUMPDEST SWAP3 POP DUP3 DUP3 MUL PUSH2 0x1285 DUP2 PUSH2 0xB87 JUMP JUMPDEST SWAP2 POP DUP3 DUP3 DIV DUP5 EQ DUP4 ISZERO OR PUSH2 0x129C JUMPI PUSH2 0x129B PUSH2 0xC91 JUMP JUMPDEST JUMPDEST POP SWAP3 SWAP2 POP POP JUMP JUMPDEST PUSH32 0x4E487B7100000000000000000000000000000000000000000000000000000000 PUSH1 0x0 MSTORE PUSH1 0x12 PUSH1 0x4 MSTORE PUSH1 0x24 PUSH1 0x0 REVERT JUMPDEST PUSH1 0x0 PUSH2 0x12DD DUP3 PUSH2 0xB87 JUMP JUMPDEST SWAP2 POP PUSH2 0x12E8 DUP4 PUSH2 0xB87 JUMP JUMPDEST SWAP3 POP DUP3 PUSH2 0x12F8 JUMPI PUSH2 0x12F7 PUSH2 0x12A3 JUMP JUMPDEST JUMPDEST DUP3 DUP3 DIV SWAP1 POP SWAP3 SWAP2 POP POP JUMP INVALID LOG2 PUSH5 0x6970667358 0x22 SLT KECCAK256 DUP15 DUP11 PUSH29 0x816765E7FB208201A8ECDF7CE6EF6F498DA4C98A1CE31298E50F7DEB6C PUSH5 0x736F6C6343 STOP ADDMOD SHR STOP CALLER "},"gasEstimates":{"creation":{"codeDepositCost":"984200","executionCost":"infinite","totalCost":"infinite"},"external":{"fund()":"infinite","fundersToAmount(address)":"2881","getChainlinkDataFeedLatestAnswer()":"infinite","getFund()":"infinite","getFundSuccess()":"2587","owner()":"2537","refund()":"infinite","setFunderToAmount(address,uint256)":"25046","transferOwnership(address)":"26980"},"internal":{"convertEthToUsd(uint256)":"infinite"}},"methodIdentifiers":{"fund()":"b60d4288","fundersToAmount(address)":"9f883a05","getChainlinkDataFeedLatestAnswer()":"bea4dfb5","getFund()":"8edd6eb6","getFundSuccess()":"da4658e0","owner()":"8da5cb5b","refund()":"590e1ae3","setFunderToAmount(address,uint256)":"d39cf006","transferOwnership(address)":"f2fde38b"}},"storageLayout":{"storage":[{"astId":765,"contract":"contracts/FundMe.sol:FundMe","label":"fundersToAmount","offset":0,"slot":"0","type":"t_mapping(t_address,t_uint256)"},{"astId":775,"contract":"contracts/FundMe.sol:FundMe","label":"dataFeed","offset":0,"slot":"1","type":"t_contract(AggregatorV3Interface)45"},{"astId":784,"contract":"contracts/FundMe.sol:FundMe","label":"owner","offset":0,"slot":"2","type":"t_address"},{"astId":786,"contract":"contracts/FundMe.sol:FundMe","label":"deploymentTtimestamp","offset":0,"slot":"3","type":"t_uint256"},{"astId":788,"contract":"contracts/FundMe.sol:FundMe","label":"lockTime","offset":0,"slot":"4","type":"t_uint256"},{"astId":790,"contract":"contracts/FundMe.sol:FundMe","label":"erc20Addr","offset":0,"slot":"5","type":"t_address"},{"astId":793,"contract":"contracts/FundMe.sol:FundMe","label":"getFundSuccess","offset":20,"slot":"5","type":"t_bool"}],"types":{"t_address":{"encoding":"inplace","label":"address","numberOfBytes":"20"},"t_bool":{"encoding":"inplace","label":"bool","numberOfBytes":"1"},"t_contract(AggregatorV3Interface)45":{"encoding":"inplace","label":"contract AggregatorV3Interface","numberOfBytes":"20"},"t_mapping(t_address,t_uint256)":{"encoding":"mapping","key":"t_address","label":"mapping(address => uint256)","numberOfBytes":"32","value":"t_uint256"},"t_uint256":{"encoding":"inplace","label":"uint256","numberOfBytes":"32"}}},"userdoc":{"kind":"user","methods":{"getChainlinkDataFeedLatestAnswer()":{"notice":"Returns the latest answer."}},"version":1}}}}