{
  "_format": "hh-sol-artifact-1",
  "contractName": "FundMe",
  "sourceName": "contracts/FundMe.sol",
  "abi": [
    {
      "inputs": [
        {
          "internalType": "uint256",
          "name": "_lockTime",
          "type": "uint256"
        },
        {
          "internalType": "address",
          "name": "dataFeedAddr",
          "type": "address"
        }
      ],
      "stateMutability": "nonpayable",
      "type": "constructor"
    },
    {
      "anonymous": false,
      "inputs": [
        {
          "indexed": false,
          "internalType": "uint256",
          "name": "",
          "type": "uint256"
        }
      ],
      "name": "FundWithdrawByOwner",
      "type": "event"
    },
    {
      "anonymous": false,
      "inputs": [
        {
          "indexed": false,
          "internalType": "address",
          "name": "",
          "type": "address"
        },
        {
          "indexed": false,
          "internalType": "uint256",
          "name": "",
          "type": "uint256"
        }
      ],
      "name": "RefundByFunder",
      "type": "event"
    },
    {
      "inputs": [],
      "name": "dataFeed",
      "outputs": [
        {
          "internalType": "contract AggregatorV3Interface",
          "name": "",
          "type": "address"
        }
      ],
      "stateMutability": "view",
      "type": "function"
    },
    {
      "inputs": [],
      "name": "fund",
      "outputs": [],
      "stateMutability": "payable",
      "type": "function"
    },
    {
      "inputs": [
        {
          "internalType": "address",
          "name": "",
          "type": "address"
        }
      ],
      "name": "fundersToAmount",
      "outputs": [
        {
          "internalType": "uint256",
          "name": "",
          "type": "uint256"
        }
      ],
      "stateMutability": "view",
      "type": "function"
    },
    {
      "inputs": [],
      "name": "getChainlinkDataFeedLatestAnswer",
      "outputs": [
        {
          "internalType": "int256",
          "name": "",
          "type": "int256"
        }
      ],
      "stateMutability": "view",
      "type": "function"
    },
    {
      "inputs": [],
      "name": "getFund",
      "outputs": [],
      "stateMutability": "nonpayable",
      "type": "function"
    },
    {
      "inputs": [],
      "name": "getFundSuccess",
      "outputs": [
        {
          "internalType": "bool",
          "name": "",
          "type": "bool"
        }
      ],
      "stateMutability": "view",
      "type": "function"
    },
    {
      "inputs": [],
      "name": "owner",
      "outputs": [
        {
          "internalType": "address",
          "name": "",
          "type": "address"
        }
      ],
      "stateMutability": "view",
      "type": "function"
    },
    {
      "inputs": [],
      "name": "refund",
      "outputs": [],
      "stateMutability": "nonpayable",
      "type": "function"
    },
    {
      "inputs": [
        {
          "internalType": "address",
          "name": "funder",
          "type": "address"
        },
        {
          "internalType": "uint256",
          "name": "amountToUpdate",
          "type": "uint256"
        }
      ],
      "name": "setFunderToAmount",
      "outputs": [],
      "stateMutability": "nonpayable",
      "type": "function"
    },
    {
      "inputs": [
        {
          "internalType": "address",
          "name": "newOwner",
          "type": "address"
        }
      ],
      "name": "transferOwnership",
      "outputs": [],
      "stateMutability": "nonpayable",
      "type": "function"
    }
  ],
  "bytecode": "0x60806040526000600560146101000a81548160ff02191690831515021790555034801561002b57600080fd5b5060405161167e38038061167e833981810160405281019061004d919061017d565b80600160006101000a81548173ffffffffffffffffffffffffffffffffffffffff021916908373ffffffffffffffffffffffffffffffffffffffff16021790555033600260006101000a81548173ffffffffffffffffffffffffffffffffffffffff021916908373ffffffffffffffffffffffffffffffffffffffff160217905550426003819055508160048190555050506101bd565b600080fd5b6000819050919050565b6100fc816100e9565b811461010757600080fd5b50565b600081519050610119816100f3565b92915050565b600073ffffffffffffffffffffffffffffffffffffffff82169050919050565b600061014a8261011f565b9050919050565b61015a8161013f565b811461016557600080fd5b50565b60008151905061017781610151565b92915050565b60008060408385031215610194576101936100e4565b5b60006101a28582860161010a565b92505060206101b385828601610168565b9150509250929050565b6114b2806101cc6000396000f3fe6080604052600436106100915760003560e01c8063b60d428811610059578063b60d428814610157578063bea4dfb514610161578063d39cf0061461018c578063da4658e0146101b5578063f2fde38b146101e057610091565b8063590e1ae3146100965780638da5cb5b146100ad5780638edd6eb6146100d85780639e42ff90146100ef5780639f883a051461011a575b600080fd5b3480156100a257600080fd5b506100ab610209565b005b3480156100b957600080fd5b506100c26104f2565b6040516100cf9190610be4565b60405180910390f35b3480156100e457600080fd5b506100ed610518565b005b3480156100fb57600080fd5b506101046107ec565b6040516101119190610c5e565b60405180910390f35b34801561012657600080fd5b50610141600480360381019061013c9190610caa565b610812565b60405161014e9190610cf0565b60405180910390f35b61015f61082a565b005b34801561016d57600080fd5b50610176610914565b6040516101839190610d24565b60405180910390f35b34801561019857600080fd5b506101b360048036038101906101ae9190610d6b565b6109b5565b005b3480156101c157600080fd5b506101ca610a8c565b6040516101d79190610dc6565b60405180910390f35b3480156101ec57600080fd5b5061020760048036038101906102029190610caa565b610a9f565b005b6004546003546102199190610e10565b42101561025b576040517f08c379a000000000000000000000000000000000000000000000000000000000815260040161025290610ea1565b60405180910390fd5b683635c9adc5dea0000061026e47610b73565b106102ae576040517f08c379a00000000000000000000000000000000000000000000000000000000081526004016102a590610f0d565b60405180910390fd5b60008060003373ffffffffffffffffffffffffffffffffffffffff1673ffffffffffffffffffffffffffffffffffffffff168152602001908152602001600020540361032f576040517f08c379a000000000000000000000000000000000000000000000000000000000815260040161032690610f79565b60405180910390fd5b60045460035461033f9190610e10565b421015610381576040517f08c379a000000000000000000000000000000000000000000000000000000000815260040161037890610ea1565b60405180910390fd5b6000806000803373ffffffffffffffffffffffffffffffffffffffff1673ffffffffffffffffffffffffffffffffffffffff1681526020019081526020016000205490503373ffffffffffffffffffffffffffffffffffffffff16816040516103e990610fca565b60006040518083038185875af1925050503d8060008114610426576040519150601f19603f3d011682016040523d82523d6000602084013e61042b565b606091505b50508092505081610471576040517f08c379a00000000000000000000000000000000000000000000000000000000081526004016104689061102b565b60405180910390fd5b60008060003373ffffffffffffffffffffffffffffffffffffffff1673ffffffffffffffffffffffffffffffffffffffff168152602001908152602001600020819055507fc69be1ee5ac2aec580fb0927d8d940555d6f0a7bd11eed94b5b597056113da5f33826040516104e692919061104b565b60405180910390a15050565b600260009054906101000a900473ffffffffffffffffffffffffffffffffffffffff1681565b6004546003546105289190610e10565b42101561056a576040517f08c379a000000000000000000000000000000000000000000000000000000000815260040161056190610ea1565b60405180910390fd5b600260009054906101000a900473ffffffffffffffffffffffffffffffffffffffff1673ffffffffffffffffffffffffffffffffffffffff163373ffffffffffffffffffffffffffffffffffffffff16146105fa576040517f08c379a00000000000000000000000000000000000000000000000000000000081526004016105f1906110e6565b60405180910390fd5b683635c9adc5dea0000061060d47610b73565b101561064e576040517f08c379a000000000000000000000000000000000000000000000000000000000815260040161064590611152565b60405180910390fd5b60045460035461065e9190610e10565b4210156106a0576040517f08c379a000000000000000000000000000000000000000000000000000000000815260040161069790610ea1565b60405180910390fd5b6000804790503373ffffffffffffffffffffffffffffffffffffffff16476040516106ca90610fca565b60006040518083038185875af1925050503d8060008114610707576040519150601f19603f3d011682016040523d82523d6000602084013e61070c565b606091505b50508092505081610752576040517f08c379a00000000000000000000000000000000000000000000000000000000081526004016107499061102b565b60405180910390fd5b60008060003373ffffffffffffffffffffffffffffffffffffffff1673ffffffffffffffffffffffffffffffffffffffff168152602001908152602001600020819055506001600560146101000a81548160ff0219169083151502179055507f2413e9342f4545ed6b87ad890930d6affc4c1914b742a3fad66c49d6d507c73b816040516107e09190610cf0565b60405180910390a15050565b600160009054906101000a900473ffffffffffffffffffffffffffffffffffffffff1681565b60006020528060005260406000206000915090505481565b670de0b6b3a764000061083c34610b73565b101561087d576040517f08c379a0000000000000000000000000000000000000000000000000000000008152600401610874906111be565b60405180910390fd5b60045460035461088d9190610e10565b4211156108cf576040517f08c379a00000000000000000000000000000000000000000000000000000000081526004016108c69061122a565b60405180910390fd5b346000803373ffffffffffffffffffffffffffffffffffffffff1673ffffffffffffffffffffffffffffffffffffffff16815260200190815260200160002081905550565b600080600160009054906101000a900473ffffffffffffffffffffffffffffffffffffffff1673ffffffffffffffffffffffffffffffffffffffff1663feaf968c6040518163ffffffff1660e01b815260040160a060405180830381865afa158015610984573d6000803e3d6000fd5b505050506040513d601f19601f820116820180604052508101906109a891906112cd565b5050509150508091505090565b600560009054906101000a900473ffffffffffffffffffffffffffffffffffffffff1673ffffffffffffffffffffffffffffffffffffffff163373ffffffffffffffffffffffffffffffffffffffff1614610a45576040517f08c379a0000000000000000000000000000000000000000000000000000000008152600401610a3c906113ba565b60405180910390fd5b806000808473ffffffffffffffffffffffffffffffffffffffff1673ffffffffffffffffffffffffffffffffffffffff168152602001908152602001600020819055505050565b600560149054906101000a900460ff1681565b600260009054906101000a900473ffffffffffffffffffffffffffffffffffffffff1673ffffffffffffffffffffffffffffffffffffffff163373ffffffffffffffffffffffffffffffffffffffff1614610b2f576040517f08c379a0000000000000000000000000000000000000000000000000000000008152600401610b26906110e6565b60405180910390fd5b80600260006101000a81548173ffffffffffffffffffffffffffffffffffffffff021916908373ffffffffffffffffffffffffffffffffffffffff16021790555050565b600080610b7e610914565b90506305f5e1008184610b9191906113da565b610b9b919061144b565b915050919050565b600073ffffffffffffffffffffffffffffffffffffffff82169050919050565b6000610bce82610ba3565b9050919050565b610bde81610bc3565b82525050565b6000602082019050610bf96000830184610bd5565b92915050565b6000819050919050565b6000610c24610c1f610c1a84610ba3565b610bff565b610ba3565b9050919050565b6000610c3682610c09565b9050919050565b6000610c4882610c2b565b9050919050565b610c5881610c3d565b82525050565b6000602082019050610c736000830184610c4f565b92915050565b600080fd5b610c8781610bc3565b8114610c9257600080fd5b50565b600081359050610ca481610c7e565b92915050565b600060208284031215610cc057610cbf610c79565b5b6000610cce84828501610c95565b91505092915050565b6000819050919050565b610cea81610cd7565b82525050565b6000602082019050610d056000830184610ce1565b92915050565b6000819050919050565b610d1e81610d0b565b82525050565b6000602082019050610d396000830184610d15565b92915050565b610d4881610cd7565b8114610d5357600080fd5b50565b600081359050610d6581610d3f565b92915050565b60008060408385031215610d8257610d81610c79565b5b6000610d9085828601610c95565b9250506020610da185828601610d56565b9150509250929050565b60008115159050919050565b610dc081610dab565b82525050565b6000602082019050610ddb6000830184610db7565b92915050565b7f4e487b7100000000000000000000000000000000000000000000000000000000600052601160045260246000fd5b6000610e1b82610cd7565b9150610e2683610cd7565b9250828201905080821115610e3e57610e3d610de1565b5b92915050565b600082825260208201905092915050565b7f77696e646f77206973206e6f7420636c6f736564000000000000000000000000600082015250565b6000610e8b601483610e44565b9150610e9682610e55565b602082019050919050565b60006020820190508181036000830152610eba81610e7e565b9050919050565b7f5461726765742069732072656163686564000000000000000000000000000000600082015250565b6000610ef7601183610e44565b9150610f0282610ec1565b602082019050919050565b60006020820190508181036000830152610f2681610eea565b9050919050565b7f7468657265206973206e6f2066756e6420666f7220796f750000000000000000600082015250565b6000610f63601883610e44565b9150610f6e82610f2d565b602082019050919050565b60006020820190508181036000830152610f9281610f56565b9050919050565b600081905092915050565b50565b6000610fb4600083610f99565b9150610fbf82610fa4565b600082019050919050565b6000610fd582610fa7565b9150819050919050565b7f7472616e73666572207478206661696c65640000000000000000000000000000600082015250565b6000611015601283610e44565b915061102082610fdf565b602082019050919050565b6000602082019050818103600083015261104481611008565b9050919050565b60006040820190506110606000830185610bd5565b61106d6020830184610ce1565b9392505050565b7f746869732066756e63696f6e742063616e206f6e6c792062652063616c6c656460008201527f206279206f776e65720000000000000000000000000000000000000000000000602082015250565b60006110d0602983610e44565b91506110db82611074565b604082019050919050565b600060208201905081810360008301526110ff816110c3565b9050919050565b7f546172676574206973206e6f7420726561636865640000000000000000000000600082015250565b600061113c601583610e44565b915061114782611106565b602082019050919050565b6000602082019050818103600083015261116b8161112f565b9050919050565b7f73656e64206d6f72652065746800000000000000000000000000000000000000600082015250565b60006111a8600d83610e44565b91506111b382611172565b602082019050919050565b600060208201905081810360008301526111d78161119b565b9050919050565b7f77696e646f7720697320636c6f73656400000000000000000000000000000000600082015250565b6000611214601083610e44565b915061121f826111de565b602082019050919050565b6000602082019050818103600083015261124381611207565b9050919050565b600069ffffffffffffffffffff82169050919050565b6112698161124a565b811461127457600080fd5b50565b60008151905061128681611260565b92915050565b61129581610d0b565b81146112a057600080fd5b50565b6000815190506112b28161128c565b92915050565b6000815190506112c781610d3f565b92915050565b600080600080600060a086880312156112e9576112e8610c79565b5b60006112f788828901611277565b9550506020611308888289016112a3565b9450506040611319888289016112b8565b935050606061132a888289016112b8565b925050608061133b88828901611277565b9150509295509295909350565b7f796f7520646f206e6f742068617665207065726d697373696f6e20746f20636160008201527f6c6c20746869732066756e74696f6e0000000000000000000000000000000000602082015250565b60006113a4602f83610e44565b91506113af82611348565b604082019050919050565b600060208201905081810360008301526113d381611397565b9050919050565b60006113e582610cd7565b91506113f083610cd7565b92508282026113fe81610cd7565b9150828204841483151761141557611414610de1565b5b5092915050565b7f4e487b7100000000000000000000000000000000000000000000000000000000600052601260045260246000fd5b600061145682610cd7565b915061146183610cd7565b9250826114715761147061141c565b5b82820490509291505056fea2646970667358221220f9a3d3781b39d4c82f41d203bf75cec43f753f2ad7836d379cfd48045b4966df64736f6c634300081c0033",
  "linkReferences": {},
  "deployedLinkReferences": {}
}