{
  "_format": "hh-sol-artifact-1",
  "contractName": "FundTokenERC20",
  "sourceName": "contracts/FundTokenETC20.sol",
  "abi": [
    {
      "inputs": [
        {
          "internalType": "address",
          "name": "fundMeAddr",
          "type": "address"
        }
      ],
      "stateMutability": "nonpayable",
      "type": "constructor"
    },
    {
      "anonymous": false,
      "inputs": [
        {
          "indexed": true,
          "internalType": "address",
          "name": "owner",
          "type": "address"
        },
        {
          "indexed": true,
          "internalType": "address",
          "name": "spender",
          "type": "address"
        },
        {
          "indexed": false,
          "internalType": "uint256",
          "name": "value",
          "type": "uint256"
        }
      ],
      "name": "Approval",
      "type": "event"
    },
    {
      "anonymous": false,
      "inputs": [
        {
          "indexed": true,
          "internalType": "address",
          "name": "from",
          "type": "address"
        },
        {
          "indexed": true,
          "internalType": "address",
          "name": "to",
          "type": "address"
        },
        {
          "indexed": false,
          "internalType": "uint256",
          "name": "value",
          "type": "uint256"
        }
      ],
      "name": "Transfer",
      "type": "event"
    },
    {
      "inputs": [
        {
          "internalType": "address",
          "name": "owner",
          "type": "address"
        },
        {
          "internalType": "address",
          "name": "spender",
          "type": "address"
        }
      ],
      "name": "allowance",
      "outputs": [
        {
          "internalType": "uint256",
          "name": "",
          "type": "uint256"
        }
      ],
      "stateMutability": "view",
      "type": "function"
    },
    {
      "inputs": [
        {
          "internalType": "address",
          "name": "spender",
          "type": "address"
        },
        {
          "internalType": "uint256",
          "name": "amount",
          "type": "uint256"
        }
      ],
      "name": "approve",
      "outputs": [
        {
          "internalType": "bool",
          "name": "",
          "type": "bool"
        }
      ],
      "stateMutability": "nonpayable",
      "type": "function"
    },
    {
      "inputs": [
        {
          "internalType": "address",
          "name": "account",
          "type": "address"
        }
      ],
      "name": "balanceOf",
      "outputs": [
        {
          "internalType": "uint256",
          "name": "",
          "type": "uint256"
        }
      ],
      "stateMutability": "view",
      "type": "function"
    },
    {
      "inputs": [
        {
          "internalType": "uint256",
          "name": "amountToClaim",
          "type": "uint256"
        }
      ],
      "name": "claim",
      "outputs": [],
      "stateMutability": "nonpayable",
      "type": "function"
    },
    {
      "inputs": [],
      "name": "decimals",
      "outputs": [
        {
          "internalType": "uint8",
          "name": "",
          "type": "uint8"
        }
      ],
      "stateMutability": "view",
      "type": "function"
    },
    {
      "inputs": [
        {
          "internalType": "address",
          "name": "spender",
          "type": "address"
        },
        {
          "internalType": "uint256",
          "name": "subtractedValue",
          "type": "uint256"
        }
      ],
      "name": "decreaseAllowance",
      "outputs": [
        {
          "internalType": "bool",
          "name": "",
          "type": "bool"
        }
      ],
      "stateMutability": "nonpayable",
      "type": "function"
    },
    {
      "inputs": [
        {
          "internalType": "address",
          "name": "spender",
          "type": "address"
        },
        {
          "internalType": "uint256",
          "name": "addedValue",
          "type": "uint256"
        }
      ],
      "name": "increaseAllowance",
      "outputs": [
        {
          "internalType": "bool",
          "name": "",
          "type": "bool"
        }
      ],
      "stateMutability": "nonpayable",
      "type": "function"
    },
    {
      "inputs": [
        {
          "internalType": "uint256",
          "name": "amountToMint",
          "type": "uint256"
        }
      ],
      "name": "mint",
      "outputs": [],
      "stateMutability": "nonpayable",
      "type": "function"
    },
    {
      "inputs": [],
      "name": "name",
      "outputs": [
        {
          "internalType": "string",
          "name": "",
          "type": "string"
        }
      ],
      "stateMutability": "view",
      "type": "function"
    },
    {
      "inputs": [],
      "name": "symbol",
      "outputs": [
        {
          "internalType": "string",
          "name": "",
          "type": "string"
        }
      ],
      "stateMutability": "view",
      "type": "function"
    },
    {
      "inputs": [],
      "name": "totalSupply",
      "outputs": [
        {
          "internalType": "uint256",
          "name": "",
          "type": "uint256"
        }
      ],
      "stateMutability": "view",
      "type": "function"
    },
    {
      "inputs": [
        {
          "internalType": "address",
          "name": "to",
          "type": "address"
        },
        {
          "internalType": "uint256",
          "name": "amount",
          "type": "uint256"
        }
      ],
      "name": "transfer",
      "outputs": [
        {
          "internalType": "bool",
          "name": "",
          "type": "bool"
        }
      ],
      "stateMutability": "nonpayable",
      "type": "function"
    },
    {
      "inputs": [
        {
          "internalType": "address",
          "name": "from",
          "type": "address"
        },
        {
          "internalType": "address",
          "name": "to",
          "type": "address"
        },
        {
          "internalType": "uint256",
          "name": "amount",
          "type": "uint256"
        }
      ],
      "name": "transferFrom",
      "outputs": [
        {
          "internalType": "bool",
          "name": "",
          "type": "bool"
        }
      ],
      "stateMutability": "nonpayable",
      "type": "function"
    }
  ],
  "bytecode": "0x608060405234801561001057600080fd5b506040516122d93803806122d98339818101604052810190610032919061016a565b6040518060400160405280600e81526020017f46756e64546f6b656e45524332300000000000000000000000000000000000008152506040518060400160405280600281526020017f465400000000000000000000000000000000000000000000000000000000000081525081600390816100ad91906103e7565b5080600490816100bd91906103e7565b50505080600560006101000a81548173ffffffffffffffffffffffffffffffffffffffff021916908373ffffffffffffffffffffffffffffffffffffffff160217905550506104b9565b600080fd5b600073ffffffffffffffffffffffffffffffffffffffff82169050919050565b60006101378261010c565b9050919050565b6101478161012c565b811461015257600080fd5b50565b6000815190506101648161013e565b92915050565b6000602082840312156101805761017f610107565b5b600061018e84828501610155565b91505092915050565b600081519050919050565b7f4e487b7100000000000000000000000000000000000000000000000000000000600052604160045260246000fd5b7f4e487b7100000000000000000000000000000000000000000000000000000000600052602260045260246000fd5b6000600282049050600182168061021857607f821691505b60208210810361022b5761022a6101d1565b5b50919050565b60008190508160005260206000209050919050565b60006020601f8301049050919050565b600082821b905092915050565b6000600883026102937fffffffffffffffffffffffffffffffffffffffffffffffffffffffffffffffff82610256565b61029d8683610256565b95508019841693508086168417925050509392505050565b6000819050919050565b6000819050919050565b60006102e46102df6102da846102b5565b6102bf565b6102b5565b9050919050565b6000819050919050565b6102fe836102c9565b61031261030a826102eb565b848454610263565b825550505050565b600090565b61032761031a565b6103328184846102f5565b505050565b5b818110156103565761034b60008261031f565b600181019050610338565b5050565b601f82111561039b5761036c81610231565b61037584610246565b81016020851015610384578190505b61039861039085610246565b830182610337565b50505b505050565b600082821c905092915050565b60006103be600019846008026103a0565b1980831691505092915050565b60006103d783836103ad565b9150826002028217905092915050565b6103f082610197565b67ffffffffffffffff811115610409576104086101a2565b5b6104138254610200565b61041e82828561035a565b600060209050601f831160018114610451576000841561043f578287015190505b61044985826103cb565b8655506104b1565b601f19841661045f86610231565b60005b8281101561048757848901518255600182019150602085019450602081019050610462565b868310156104a457848901516104a0601f8916826103ad565b8355505b6001600288020188555050505b505050505050565b611e11806104c86000396000f3fe608060405234801561001057600080fd5b50600436106100cf5760003560e01c8063395093511161008c578063a0712d6811610066578063a0712d6814610228578063a457c2d714610244578063a9059cbb14610274578063dd62ed3e146102a4576100cf565b806339509351146101aa57806370a08231146101da57806395d89b411461020a576100cf565b806306fdde03146100d4578063095ea7b3146100f257806318160ddd1461012257806323b872dd14610140578063313ce56714610170578063379607f51461018e575b600080fd5b6100dc6102d4565b6040516100e991906112a5565b60405180910390f35b61010c60048036038101906101079190611360565b610366565b60405161011991906113bb565b60405180910390f35b61012a610389565b60405161013791906113e5565b60405180910390f35b61015a60048036038101906101559190611400565b610393565b60405161016791906113bb565b60405180910390f35b6101786103c2565b604051610185919061146f565b60405180910390f35b6101a860048036038101906101a3919061148a565b6103cb565b005b6101c460048036038101906101bf9190611360565b6104f3565b6040516101d191906113bb565b60405180910390f35b6101f460048036038101906101ef91906114b7565b61052a565b60405161020191906113e5565b60405180910390f35b610212610572565b60405161021f91906112a5565b60405180910390f35b610242600480360381019061023d919061148a565b610604565b005b61025e60048036038101906102599190611360565b6108f4565b60405161026b91906113bb565b60405180910390f35b61028e60048036038101906102899190611360565b61096b565b60405161029b91906113bb565b60405180910390f35b6102be60048036038101906102b991906114e4565b61098e565b6040516102cb91906113e5565b60405180910390f35b6060600380546102e390611553565b80601f016020809104026020016040519081016040528092919081815260200182805461030f90611553565b801561035c5780601f106103315761010080835404028352916020019161035c565b820191906000526020600020905b81548152906001019060200180831161033f57829003601f168201915b5050505050905090565b600080610371610a15565b905061037e818585610a1d565b600191505092915050565b6000600254905090565b60008061039e610a15565b90506103ab858285610be6565b6103b6858585610c72565b60019150509392505050565b60006012905090565b806103d53361052a565b1015610416576040517f08c379a000000000000000000000000000000000000000000000000000000000815260040161040d906115f6565b60405180910390fd5b600560009054906101000a900473ffffffffffffffffffffffffffffffffffffffff1673ffffffffffffffffffffffffffffffffffffffff1663da4658e06040518163ffffffff1660e01b8152600401602060405180830381865afa158015610483573d6000803e3d6000fd5b505050506040513d601f19601f820116820180604052508101906104a79190611642565b6104e6576040517f08c379a00000000000000000000000000000000000000000000000000000000081526004016104dd906116bb565b60405180910390fd5b6104f03382610ee8565b50565b6000806104fe610a15565b905061051f818585610510858961098e565b61051a919061170a565b610a1d565b600191505092915050565b60008060008373ffffffffffffffffffffffffffffffffffffffff1673ffffffffffffffffffffffffffffffffffffffff168152602001908152602001600020549050919050565b60606004805461058190611553565b80601f01602080910402602001604051908101604052809291908181526020018280546105ad90611553565b80156105fa5780601f106105cf576101008083540402835291602001916105fa565b820191906000526020600020905b8154815290600101906020018083116105dd57829003601f168201915b5050505050905090565b80600560009054906101000a900473ffffffffffffffffffffffffffffffffffffffff1673ffffffffffffffffffffffffffffffffffffffff16639f883a05336040518263ffffffff1660e01b8152600401610660919061174d565b602060405180830381865afa15801561067d573d6000803e3d6000fd5b505050506040513d601f19601f820116820180604052508101906106a1919061177d565b10156106e2576040517f08c379a00000000000000000000000000000000000000000000000000000000081526004016106d9906117f6565b60405180910390fd5b600560009054906101000a900473ffffffffffffffffffffffffffffffffffffffff1673ffffffffffffffffffffffffffffffffffffffff1663da4658e06040518163ffffffff1660e01b8152600401602060405180830381865afa15801561074f573d6000803e3d6000fd5b505050506040513d601f19601f820116820180604052508101906107739190611642565b6107b2576040517f08c379a00000000000000000000000000000000000000000000000000000000081526004016107a9906116bb565b60405180910390fd5b6107bc33826110b5565b600560009054906101000a900473ffffffffffffffffffffffffffffffffffffffff1673ffffffffffffffffffffffffffffffffffffffff1663d39cf0063383600560009054906101000a900473ffffffffffffffffffffffffffffffffffffffff1673ffffffffffffffffffffffffffffffffffffffff16639f883a05336040518263ffffffff1660e01b8152600401610857919061174d565b602060405180830381865afa158015610874573d6000803e3d6000fd5b505050506040513d601f19601f82011682018060405250810190610898919061177d565b6108a29190611816565b6040518363ffffffff1660e01b81526004016108bf92919061184a565b600060405180830381600087803b1580156108d957600080fd5b505af11580156108ed573d6000803e3d6000fd5b5050505050565b6000806108ff610a15565b9050600061090d828661098e565b905083811015610952576040517f08c379a0000000000000000000000000000000000000000000000000000000008152600401610949906118e5565b60405180910390fd5b61095f8286868403610a1d565b60019250505092915050565b600080610976610a15565b9050610983818585610c72565b600191505092915050565b6000600160008473ffffffffffffffffffffffffffffffffffffffff1673ffffffffffffffffffffffffffffffffffffffff16815260200190815260200160002060008373ffffffffffffffffffffffffffffffffffffffff1673ffffffffffffffffffffffffffffffffffffffff16815260200190815260200160002054905092915050565b600033905090565b600073ffffffffffffffffffffffffffffffffffffffff168373ffffffffffffffffffffffffffffffffffffffff1603610a8c576040517f08c379a0000000000000000000000000000000000000000000000000000000008152600401610a8390611977565b60405180910390fd5b600073ffffffffffffffffffffffffffffffffffffffff168273ffffffffffffffffffffffffffffffffffffffff1603610afb576040517f08c379a0000000000000000000000000000000000000000000000000000000008152600401610af290611a09565b60405180910390fd5b80600160008573ffffffffffffffffffffffffffffffffffffffff1673ffffffffffffffffffffffffffffffffffffffff16815260200190815260200160002060008473ffffffffffffffffffffffffffffffffffffffff1673ffffffffffffffffffffffffffffffffffffffff168152602001908152602001600020819055508173ffffffffffffffffffffffffffffffffffffffff168373ffffffffffffffffffffffffffffffffffffffff167f8c5be1e5ebec7d5bd14f71427d1e84f3dd0314c0f7b2291e5b200ac8c7c3b92583604051610bd991906113e5565b60405180910390a3505050565b6000610bf2848461098e565b90507fffffffffffffffffffffffffffffffffffffffffffffffffffffffffffffffff8114610c6c5781811015610c5e576040517f08c379a0000000000000000000000000000000000000000000000000000000008152600401610c5590611a75565b60405180910390fd5b610c6b8484848403610a1d565b5b50505050565b600073ffffffffffffffffffffffffffffffffffffffff168373ffffffffffffffffffffffffffffffffffffffff1603610ce1576040517f08c379a0000000000000000000000000000000000000000000000000000000008152600401610cd890611b07565b60405180910390fd5b600073ffffffffffffffffffffffffffffffffffffffff168273ffffffffffffffffffffffffffffffffffffffff1603610d50576040517f08c379a0000000000000000000000000000000000000000000000000000000008152600401610d4790611b99565b60405180910390fd5b610d5b83838361120b565b60008060008573ffffffffffffffffffffffffffffffffffffffff1673ffffffffffffffffffffffffffffffffffffffff16815260200190815260200160002054905081811015610de1576040517f08c379a0000000000000000000000000000000000000000000000000000000008152600401610dd890611c2b565b60405180910390fd5b8181036000808673ffffffffffffffffffffffffffffffffffffffff1673ffffffffffffffffffffffffffffffffffffffff16815260200190815260200160002081905550816000808573ffffffffffffffffffffffffffffffffffffffff1673ffffffffffffffffffffffffffffffffffffffff168152602001908152602001600020600082825401925050819055508273ffffffffffffffffffffffffffffffffffffffff168473ffffffffffffffffffffffffffffffffffffffff167fddf252ad1be2c89b69c2b068fc378daa952ba7f163c4a11628f55a4df523b3ef84604051610ecf91906113e5565b60405180910390a3610ee2848484611210565b50505050565b600073ffffffffffffffffffffffffffffffffffffffff168273ffffffffffffffffffffffffffffffffffffffff1603610f57576040517f08c379a0000000000000000000000000000000000000000000000000000000008152600401610f4e90611cbd565b60405180910390fd5b610f638260008361120b565b60008060008473ffffffffffffffffffffffffffffffffffffffff1673ffffffffffffffffffffffffffffffffffffffff16815260200190815260200160002054905081811015610fe9576040517f08c379a0000000000000000000000000000000000000000000000000000000008152600401610fe090611d4f565b60405180910390fd5b8181036000808573ffffffffffffffffffffffffffffffffffffffff1673ffffffffffffffffffffffffffffffffffffffff1681526020019081526020016000208190555081600260008282540392505081905550600073ffffffffffffffffffffffffffffffffffffffff168373ffffffffffffffffffffffffffffffffffffffff167fddf252ad1be2c89b69c2b068fc378daa952ba7f163c4a11628f55a4df523b3ef8460405161109c91906113e5565b60405180910390a36110b083600084611210565b505050565b600073ffffffffffffffffffffffffffffffffffffffff168273ffffffffffffffffffffffffffffffffffffffff1603611124576040517f08c379a000000000000000000000000000000000000000000000000000000000815260040161111b90611dbb565b60405180910390fd5b6111306000838361120b565b8060026000828254611142919061170a565b92505081905550806000808473ffffffffffffffffffffffffffffffffffffffff1673ffffffffffffffffffffffffffffffffffffffff168152602001908152602001600020600082825401925050819055508173ffffffffffffffffffffffffffffffffffffffff16600073ffffffffffffffffffffffffffffffffffffffff167fddf252ad1be2c89b69c2b068fc378daa952ba7f163c4a11628f55a4df523b3ef836040516111f391906113e5565b60405180910390a361120760008383611210565b5050565b505050565b505050565b600081519050919050565b600082825260208201905092915050565b60005b8381101561124f578082015181840152602081019050611234565b60008484015250505050565b6000601f19601f8301169050919050565b600061127782611215565b6112818185611220565b9350611291818560208601611231565b61129a8161125b565b840191505092915050565b600060208201905081810360008301526112bf818461126c565b905092915050565b600080fd5b600073ffffffffffffffffffffffffffffffffffffffff82169050919050565b60006112f7826112cc565b9050919050565b611307816112ec565b811461131257600080fd5b50565b600081359050611324816112fe565b92915050565b6000819050919050565b61133d8161132a565b811461134857600080fd5b50565b60008135905061135a81611334565b92915050565b60008060408385031215611377576113766112c7565b5b600061138585828601611315565b92505060206113968582860161134b565b9150509250929050565b60008115159050919050565b6113b5816113a0565b82525050565b60006020820190506113d060008301846113ac565b92915050565b6113df8161132a565b82525050565b60006020820190506113fa60008301846113d6565b92915050565b600080600060608486031215611419576114186112c7565b5b600061142786828701611315565b935050602061143886828701611315565b92505060406114498682870161134b565b9150509250925092565b600060ff82169050919050565b61146981611453565b82525050565b60006020820190506114846000830184611460565b92915050565b6000602082840312156114a05761149f6112c7565b5b60006114ae8482850161134b565b91505092915050565b6000602082840312156114cd576114cc6112c7565b5b60006114db84828501611315565b91505092915050565b600080604083850312156114fb576114fa6112c7565b5b600061150985828601611315565b925050602061151a85828601611315565b9150509250929050565b7f4e487b7100000000000000000000000000000000000000000000000000000000600052602260045260246000fd5b6000600282049050600182168061156b57607f821691505b60208210810361157e5761157d611524565b5b50919050565b7f596f7520646f6e74206861766520656e6f75676820455243323020746f6b656e60008201527f7300000000000000000000000000000000000000000000000000000000000000602082015250565b60006115e0602183611220565b91506115eb82611584565b604082019050919050565b6000602082019050818103600083015261160f816115d3565b9050919050565b61161f816113a0565b811461162a57600080fd5b50565b60008151905061163c81611616565b92915050565b600060208284031215611658576116576112c7565b5b60006116668482850161162d565b91505092915050565b7f5468652066756e646d65206973206e6f7420636f6d706c657465642079657400600082015250565b60006116a5601f83611220565b91506116b08261166f565b602082019050919050565b600060208201905081810360008301526116d481611698565b9050919050565b7f4e487b7100000000000000000000000000000000000000000000000000000000600052601160045260246000fd5b60006117158261132a565b91506117208361132a565b9250828201905080821115611738576117376116db565b5b92915050565b611747816112ec565b82525050565b6000602082019050611762600083018461173e565b92915050565b60008151905061177781611334565b92915050565b600060208284031215611793576117926112c7565b5b60006117a184828501611768565b91505092915050565b7f596f752063616e6e6f74206d696e742074686973206d616e7920746f6b656e73600082015250565b60006117e0602083611220565b91506117eb826117aa565b602082019050919050565b6000602082019050818103600083015261180f816117d3565b9050919050565b60006118218261132a565b915061182c8361132a565b9250828203905081811115611844576118436116db565b5b92915050565b600060408201905061185f600083018561173e565b61186c60208301846113d6565b9392505050565b7f45524332303a2064656372656173656420616c6c6f77616e63652062656c6f7760008201527f207a65726f000000000000000000000000000000000000000000000000000000602082015250565b60006118cf602583611220565b91506118da82611873565b604082019050919050565b600060208201905081810360008301526118fe816118c2565b9050919050565b7f45524332303a20617070726f76652066726f6d20746865207a65726f2061646460008201527f7265737300000000000000000000000000000000000000000000000000000000602082015250565b6000611961602483611220565b915061196c82611905565b604082019050919050565b6000602082019050818103600083015261199081611954565b9050919050565b7f45524332303a20617070726f766520746f20746865207a65726f20616464726560008201527f7373000000000000000000000000000000000000000000000000000000000000602082015250565b60006119f3602283611220565b91506119fe82611997565b604082019050919050565b60006020820190508181036000830152611a22816119e6565b9050919050565b7f45524332303a20696e73756666696369656e7420616c6c6f77616e6365000000600082015250565b6000611a5f601d83611220565b9150611a6a82611a29565b602082019050919050565b60006020820190508181036000830152611a8e81611a52565b9050919050565b7f45524332303a207472616e736665722066726f6d20746865207a65726f20616460008201527f6472657373000000000000000000000000000000000000000000000000000000602082015250565b6000611af1602583611220565b9150611afc82611a95565b604082019050919050565b60006020820190508181036000830152611b2081611ae4565b9050919050565b7f45524332303a207472616e7366657220746f20746865207a65726f206164647260008201527f6573730000000000000000000000000000000000000000000000000000000000602082015250565b6000611b83602383611220565b9150611b8e82611b27565b604082019050919050565b60006020820190508181036000830152611bb281611b76565b9050919050565b7f45524332303a207472616e7366657220616d6f756e742065786365656473206260008201527f616c616e63650000000000000000000000000000000000000000000000000000602082015250565b6000611c15602683611220565b9150611c2082611bb9565b604082019050919050565b60006020820190508181036000830152611c4481611c08565b9050919050565b7f45524332303a206275726e2066726f6d20746865207a65726f2061646472657360008201527f7300000000000000000000000000000000000000000000000000000000000000602082015250565b6000611ca7602183611220565b9150611cb282611c4b565b604082019050919050565b60006020820190508181036000830152611cd681611c9a565b9050919050565b7f45524332303a206275726e20616d6f756e7420657863656564732062616c616e60008201527f6365000000000000000000000000000000000000000000000000000000000000602082015250565b6000611d39602283611220565b9150611d4482611cdd565b604082019050919050565b60006020820190508181036000830152611d6881611d2c565b9050919050565b7f45524332303a206d696e7420746f20746865207a65726f206164647265737300600082015250565b6000611da5601f83611220565b9150611db082611d6f565b602082019050919050565b60006020820190508181036000830152611dd481611d98565b905091905056fea2646970667358221220dbe93bc1523df6da604918f45eb0ae67c5bc41f4098082714060b8a57f492d0a64736f6c634300081c0033",
  "linkReferences": {},
  "deployedLinkReferences": {}
}